{
	"data": {
		"bytecode": {
			"linkReferences": {},
			"object": "60806040526001600255601e60035568014d1120d7b1600000600c553480156200002857600080fd5b5060405162001627380380620016278339810160408190526200004b9162000119565b6200005f62000059620000c5565b620000c9565b600780546001600160a01b0319166001600160a01b03831617905562000089426201518062000149565b60065550600980546001600160a01b03199081163090811790925560088054821690921790915542600a55600b8054909116331790556200016e565b3390565b600080546001600160a01b038381166001600160a01b0319831681178455604051919092169283917f8be0079c531659141344cd1fd0a4f28419497f9722a3daafe3b4186f6b6457e09190a35050565b6000602082840312156200012b578081fd5b81516001600160a01b038116811462000142578182fd5b9392505050565b600082198211156200016957634e487b7160e01b81526011600452602481fd5b500190565b6114a9806200017e6000396000f3fe608060405234801561001057600080fd5b506004361061012c5760003560e01c8063715018a6116100ad5780639e19a697116100715780639e19a69714610228578063bd3197dd14610230578063df03ba6814610238578063f2fde38b14610240578063fc59282d146102535761012c565b8063715018a6146101df57806380e4cc9d146101e7578063855caad7146101fa5780638a03ad861461020d5780638da5cb5b146102205761012c565b806338af3eed116100f457806338af3eed146101ac57806349e0eaf1146101b457806359c77222146101bc57806367eaeddb146101cf57806368ef3023146101d75761012c565b8063030ba6c8146101315780631a5ee7791461014f5780631c31f71014610164578063223b839e146101775780633013ce2914610197575b600080fd5b610139610266565b60405161014691906113a5565b60405180910390f35b61016261015d366004610f9a565b6102f0565b005b610162610172366004610f5e565b61036d565b61018a610185366004610f5e565b610438565b604051610146919061138e565b61019f610473565b6040516101469190610fe6565b61019f610482565b610139610491565b6101626101ca366004610f5e565b610497565b61019f610522565b610139610573565b610162610579565b6101626101f5366004610f5e565b6105c4565b610162610208366004610f9a565b610675565b61019f61021b366004610f9a565b61070b565b61019f610726565b610139610735565b610162610741565b6101396108d0565b61016261024e366004610f5e565b6108d6565b610162610261366004610f9a565b610947565b6000610270610473565b6001600160a01b03166370a08231306040518263ffffffff1660e01b815260040161029b9190610fe6565b60206040518083038186803b1580156102b357600080fd5b505afa1580156102c7573d6000803e3d6000fd5b505050506040513d601f19601f820116820180604052508101906102eb9190610fb2565b905090565b6102f8610cd9565b6001600160a01b0316610309610726565b6001600160a01b0316146103385760405162461bcd60e51b815260040161032f906111be565b60405180910390fd5b600c819055604051819033907f45efd08c5c5a5d195a14454f3dc66a5151733a96a6e5544e6bedabb9425bd8fb90600090a350565b610375610cd9565b6001600160a01b0316610386610726565b6001600160a01b0316146103ac5760405162461bcd60e51b815260040161032f906111be565b6001600160a01b0381166103d25760405162461bcd60e51b815260040161032f90611144565b600880546001600160a01b0319166001600160a01b0383161790556103fa42620151806113ae565b600a8190556040516001600160a01b0383169033907fa20d7ddb41a040b4dd0e9e5db34547291bed37c1b72a2f0834888d1d16fe7b2990600090a450565b610440610f44565b506001600160a01b0316600090815260046020908152604091829020825180840190935280548352600101549082015290565b6007546001600160a01b031690565b6009546001600160a01b031690565b600c5490565b61049f610cd9565b6001600160a01b03166104b0610726565b6001600160a01b0316146104d65760405162461bcd60e51b815260040161032f906111be565b600780546001600160a01b0319166001600160a01b03831690811790915560405133907f9a789ba6a022c5dd35cbc1dda6260e60fcc2516b6d0523db7d3a3794755d5d0590600090a350565b600061052c610cd9565b6001600160a01b031661053d610726565b6001600160a01b0316146105635760405162461bcd60e51b815260040161032f906111be565b50600b546001600160a01b031690565b60035490565b610581610cd9565b6001600160a01b0316610592610726565b6001600160a01b0316146105b85760405162461bcd60e51b815260040161032f906111be565b6105c26000610cdd565b565b6105cc610cd9565b6001600160a01b03166105dd610726565b6001600160a01b0316146106035760405162461bcd60e51b815260040161032f906111be565b6001600160a01b0381166106295760405162461bcd60e51b815260040161032f90611250565b600b80546001600160a01b0319166001600160a01b03831690811790915560405133907f11998873d3e1973e66fc772d04f0296b3947ffff7c65e5947b36e3ab2a4c3b2290600090a350565b61067d610cd9565b6001600160a01b031661068e610726565b6001600160a01b0316146106b45760405162461bcd60e51b815260040161032f906111be565b6002548110156106d65760405162461bcd60e51b815260040161032f906111f3565b6003819055604051819033907f54144a6fd4e0678ecf30adc6dc4c67d39d8180dc36509b997c472dd399a0854890600090a350565b6000908152600560205260409020546001600160a01b031690565b6000546001600160a01b031690565b60006102eb6001610d2d565b6008546009546001600160a01b039081169116148015906107635750600a5442115b1561078b57600854600980546001600160a01b0319166001600160a01b039092169190911790555b600b546001600160a01b03163314806107bc57506107a7610726565b6001600160a01b0316336001600160a01b0316145b6107d85760405162461bcd60e51b815260040161032f90611365565b60006107e2610473565b6001600160a01b03166370a08231306040518263ffffffff1660e01b815260040161080d9190610fe6565b60206040518083038186803b15801561082557600080fd5b505afa158015610839573d6000803e3d6000fd5b505050506040513d601f19601f8201168201806040525081019061085d9190610fb2565b90506108853061086b610482565b83610874610473565b6001600160a01b0316929190610d31565b8061088e610482565b6001600160a01b0316306001600160a01b03167f73b4085607a6c9fca1c3d2544335bc2cc164c57debcede3d0a05d79fb524c1df60405160405180910390a450565b60065490565b6108de610cd9565b6001600160a01b03166108ef610726565b6001600160a01b0316146109155760405162461bcd60e51b815260040161032f906111be565b6001600160a01b03811661093b5760405162461bcd60e51b815260040161032f90611051565b61094481610cdd565b50565b61094f6108d0565b421161096d5760405162461bcd60e51b815260040161032f90611097565b6008546009546001600160a01b0390811691161480159061098f5750600a5442115b156109b757600854600980546001600160a01b0319166001600160a01b039092169190911790555b3360009081526004602052604090205415610b43573360009081526004602052604081206001015462015180906109ef904290611405565b6109f991906113c6565b90508015610a3a576002548210158015610a1e5750600354610a1b82846113ae565b11155b610a3a5760405162461bcd60e51b815260040161032f90611308565b610a42610491565b610a4c90836113e6565b610a54610473565b6001600160a01b03166370a08231336040518263ffffffff1660e01b8152600401610a7f9190610fe6565b60206040518083038186803b158015610a9757600080fd5b505afa158015610aab573d6000803e3d6000fd5b505050506040513d601f19601f82011682018060405250810190610acf9190610fb2565b1015610aed5760405162461bcd60e51b815260040161032f90611187565b610b1333610af9610482565b610b01610491565b610b0b90866113e6565b610874610473565b610b2082620151806113e6565b610b2a90426113ae565b3360009081526004602052604090206001015550610c9a565b6002548110158015610b5757506003548111155b610b735760405162461bcd60e51b815260040161032f90611308565b610b7b610491565b610b8590826113e6565b610b8d610473565b6001600160a01b03166370a08231336040518263ffffffff1660e01b8152600401610bb89190610fe6565b60206040518083038186803b158015610bd057600080fd5b505afa158015610be4573d6000803e3d6000fd5b505050506040513d601f19601f82011682018060405250810190610c089190610fb2565b1015610c265760405162461bcd60e51b815260040161032f90611187565b610c4433610c32610482565b610c3a610491565b610b0b90856113e6565b610c4e6001610d8f565b6000610c5a6001610d2d565b3360009081526004602052604090208190559050610c7b82620151806113e6565b610c8590426113ae565b33600090815260046020526040902060010155505b336000818152600460205260408082206001015490519092917f017b208a35a2a33ae0197d534865bae3e6bf6d2c883b26280e40d50207c907a991a350565b3390565b600080546001600160a01b038381166001600160a01b0319831681178455604051919092169283917f8be0079c531659141344cd1fd0a4f28419497f9722a3daafe3b4186f6b6457e09190a35050565b5490565b610d89846323b872dd60e01b858585604051602401610d5293929190610ffa565b60408051601f198184030181529190526020810180516001600160e01b03166001600160e01b031990931692909217909152610d98565b50505050565b80546001019055565b6000610ded826040518060400160405280602081526020017f5361666545524332303a206c6f772d6c6576656c2063616c6c206661696c6564815250856001600160a01b0316610e2c9092919063ffffffff16565b805190915015610e275780806020019051810190610e0b9190610f7a565b610e275760405162461bcd60e51b815260040161032f906112be565b505050565b6060610e3b8484600085610e45565b90505b9392505050565b606082471015610e675760405162461bcd60e51b815260040161032f906110fe565b610e7085610f05565b610e8c5760405162461bcd60e51b815260040161032f90611287565b600080866001600160a01b03168587604051610ea89190610fca565b60006040518083038185875af1925050503d8060008114610ee5576040519150601f19603f3d011682016040523d82523d6000602084013e610eea565b606091505b5091509150610efa828286610f0b565b979650505050505050565b3b151590565b60608315610f1a575081610e3e565b825115610f2a5782518084602001fd5b8160405162461bcd60e51b815260040161032f919061101e565b604051806040016040528060008152602001600081525090565b600060208284031215610f6f578081fd5b8135610e3e8161145e565b600060208284031215610f8b578081fd5b81518015158114610e3e578182fd5b600060208284031215610fab578081fd5b5035919050565b600060208284031215610fc3578081fd5b5051919050565b60008251610fdc81846020870161141c565b9190910192915050565b6001600160a01b0391909116815260200190565b6001600160a01b039384168152919092166020820152604081019190915260600190565b600060208252825180602084015261103d81604085016020870161141c565b601f01601f19169190910160400192915050565b60208082526026908201527f4f776e61626c653a206e6577206f776e657220697320746865207a65726f206160408201526564647265737360d01b606082015260800190565b60208082526041908201527f41637469766554696d653a20596f752063616e277420657874656e642073756260408201527f736372697074696f6e206265666f726520746865206163746976652074696d656060820152601760f91b608082015260a00190565b60208082526026908201527f416464726573733a20696e73756666696369656e742062616c616e636520666f6040820152651c8818d85b1b60d21b606082015260800190565b60208082526023908201527f4e65772062656e656669636961727920697320746865207a65726f206164647260408201526265737360e81b606082015260800190565b6020808252601b908201527f43616e27742070617920737562736372697074696f6e20666565210000000000604082015260600190565b6020808252818101527f4f776e61626c653a2063616c6c6572206973206e6f7420746865206f776e6572604082015260600190565b60208082526037908201527f537562736372697074696f6e3a2043616e2774206265206c657373207468616e60408201527f206d696e20737562736372697074696f6e2074696d6521000000000000000000606082015260800190565b6020808252601e908201527f4e657720776f726b657220697320746865207a65726f20616464726573730000604082015260600190565b6020808252601d908201527f416464726573733a2063616c6c20746f206e6f6e2d636f6e7472616374000000604082015260600190565b6020808252602a908201527f5361666545524332303a204552433230206f7065726174696f6e20646964206e6040820152691bdd081cdd58d8d9595960b21b606082015260800190565b6020808252603c908201527f537562736372697074696f6e3a2043616e2774206265206f7574206f66206d6960408201527f6e20616e64206d617820737562736372697074696f6e2074696d652100000000606082015260800190565b6020808252600f908201526e496e76616c69642063616c6c65722160881b604082015260600190565b815181526020918201519181019190915260400190565b90815260200190565b600082198211156113c1576113c1611448565b500190565b6000826113e157634e487b7160e01b81526012600452602481fd5b500490565b600081600019048311821515161561140057611400611448565b500290565b60008282101561141757611417611448565b500390565b60005b8381101561143757818101518382015260200161141f565b83811115610d895750506000910152565b634e487b7160e01b600052601160045260246000fd5b6001600160a01b038116811461094457600080fdfea2646970667358221220e6509b903862edbeaab8b2c5b3ea7906f2178c821c037d745c63c6c8d584d6cf64736f6c63430008000033",
			"opcodes": "PUSH1 0x80 PUSH1 0x40 MSTORE PUSH1 0x1 PUSH1 0x2 SSTORE PUSH1 0x1E PUSH1 0x3 SSTORE PUSH9 0x14D1120D7B1600000 PUSH1 0xC SSTORE CALLVALUE DUP1 ISZERO PUSH3 0x28 JUMPI PUSH1 0x0 DUP1 REVERT JUMPDEST POP PUSH1 0x40 MLOAD PUSH3 0x1627 CODESIZE SUB DUP1 PUSH3 0x1627 DUP4 CODECOPY DUP2 ADD PUSH1 0x40 DUP2 SWAP1 MSTORE PUSH3 0x4B SWAP2 PUSH3 0x119 JUMP JUMPDEST PUSH3 0x5F PUSH3 0x59 PUSH3 0xC5 JUMP JUMPDEST PUSH3 0xC9 JUMP JUMPDEST PUSH1 0x7 DUP1 SLOAD PUSH1 0x1 PUSH1 0x1 PUSH1 0xA0 SHL SUB NOT AND PUSH1 0x1 PUSH1 0x1 PUSH1 0xA0 SHL SUB DUP4 AND OR SWAP1 SSTORE PUSH3 0x89 TIMESTAMP PUSH3 0x15180 PUSH3 0x149 JUMP JUMPDEST PUSH1 0x6 SSTORE POP PUSH1 0x9 DUP1 SLOAD PUSH1 0x1 PUSH1 0x1 PUSH1 0xA0 SHL SUB NOT SWAP1 DUP2 AND ADDRESS SWAP1 DUP2 OR SWAP1 SWAP3 SSTORE PUSH1 0x8 DUP1 SLOAD DUP3 AND SWAP1 SWAP3 OR SWAP1 SWAP2 SSTORE TIMESTAMP PUSH1 0xA SSTORE PUSH1 0xB DUP1 SLOAD SWAP1 SWAP2 AND CALLER OR SWAP1 SSTORE PUSH3 0x16E JUMP JUMPDEST CALLER SWAP1 JUMP JUMPDEST PUSH1 0x0 DUP1 SLOAD PUSH1 0x1 PUSH1 0x1 PUSH1 0xA0 SHL SUB DUP4 DUP2 AND PUSH1 0x1 PUSH1 0x1 PUSH1 0xA0 SHL SUB NOT DUP4 AND DUP2 OR DUP5 SSTORE PUSH1 0x40 MLOAD SWAP2 SWAP1 SWAP3 AND SWAP3 DUP4 SWAP2 PUSH32 0x8BE0079C531659141344CD1FD0A4F28419497F9722A3DAAFE3B4186F6B6457E0 SWAP2 SWAP1 LOG3 POP POP JUMP JUMPDEST PUSH1 0x0 PUSH1 0x20 DUP3 DUP5 SUB SLT ISZERO PUSH3 0x12B JUMPI DUP1 DUP2 REVERT JUMPDEST DUP2 MLOAD PUSH1 0x1 PUSH1 0x1 PUSH1 0xA0 SHL SUB DUP2 AND DUP2 EQ PUSH3 0x142 JUMPI DUP2 DUP3 REVERT JUMPDEST SWAP4 SWAP3 POP POP POP JUMP JUMPDEST PUSH1 0x0 DUP3 NOT DUP3 GT ISZERO PUSH3 0x169 JUMPI PUSH4 0x4E487B71 PUSH1 0xE0 SHL DUP2 MSTORE PUSH1 0x11 PUSH1 0x4 MSTORE PUSH1 0x24 DUP2 REVERT JUMPDEST POP ADD SWAP1 JUMP JUMPDEST PUSH2 0x14A9 DUP1 PUSH3 0x17E PUSH1 0x0 CODECOPY PUSH1 0x0 RETURN INVALID PUSH1 0x80 PUSH1 0x40 MSTORE CALLVALUE DUP1 ISZERO PUSH2 0x10 JUMPI PUSH1 0x0 DUP1 REVERT JUMPDEST POP PUSH1 0x4 CALLDATASIZE LT PUSH2 0x12C JUMPI PUSH1 0x0 CALLDATALOAD PUSH1 0xE0 SHR DUP1 PUSH4 0x715018A6 GT PUSH2 0xAD JUMPI DUP1 PUSH4 0x9E19A697 GT PUSH2 0x71 JUMPI DUP1 PUSH4 0x9E19A697 EQ PUSH2 0x228 JUMPI DUP1 PUSH4 0xBD3197DD EQ PUSH2 0x230 JUMPI DUP1 PUSH4 0xDF03BA68 EQ PUSH2 0x238 JUMPI DUP1 PUSH4 0xF2FDE38B EQ PUSH2 0x240 JUMPI DUP1 PUSH4 0xFC59282D EQ PUSH2 0x253 JUMPI PUSH2 0x12C JUMP JUMPDEST DUP1 PUSH4 0x715018A6 EQ PUSH2 0x1DF JUMPI DUP1 PUSH4 0x80E4CC9D EQ PUSH2 0x1E7 JUMPI DUP1 PUSH4 0x855CAAD7 EQ PUSH2 0x1FA JUMPI DUP1 PUSH4 0x8A03AD86 EQ PUSH2 0x20D JUMPI DUP1 PUSH4 0x8DA5CB5B EQ PUSH2 0x220 JUMPI PUSH2 0x12C JUMP JUMPDEST DUP1 PUSH4 0x38AF3EED GT PUSH2 0xF4 JUMPI DUP1 PUSH4 0x38AF3EED EQ PUSH2 0x1AC JUMPI DUP1 PUSH4 0x49E0EAF1 EQ PUSH2 0x1B4 JUMPI DUP1 PUSH4 0x59C77222 EQ PUSH2 0x1BC JUMPI DUP1 PUSH4 0x67EAEDDB EQ PUSH2 0x1CF JUMPI DUP1 PUSH4 0x68EF3023 EQ PUSH2 0x1D7 JUMPI PUSH2 0x12C JUMP JUMPDEST DUP1 PUSH4 0x30BA6C8 EQ PUSH2 0x131 JUMPI DUP1 PUSH4 0x1A5EE779 EQ PUSH2 0x14F JUMPI DUP1 PUSH4 0x1C31F710 EQ PUSH2 0x164 JUMPI DUP1 PUSH4 0x223B839E EQ PUSH2 0x177 JUMPI DUP1 PUSH4 0x3013CE29 EQ PUSH2 0x197 JUMPI JUMPDEST PUSH1 0x0 DUP1 REVERT JUMPDEST PUSH2 0x139 PUSH2 0x266 JUMP JUMPDEST PUSH1 0x40 MLOAD PUSH2 0x146 SWAP2 SWAP1 PUSH2 0x13A5 JUMP JUMPDEST PUSH1 0x40 MLOAD DUP1 SWAP2 SUB SWAP1 RETURN JUMPDEST PUSH2 0x162 PUSH2 0x15D CALLDATASIZE PUSH1 0x4 PUSH2 0xF9A JUMP JUMPDEST PUSH2 0x2F0 JUMP JUMPDEST STOP JUMPDEST PUSH2 0x162 PUSH2 0x172 CALLDATASIZE PUSH1 0x4 PUSH2 0xF5E JUMP JUMPDEST PUSH2 0x36D JUMP JUMPDEST PUSH2 0x18A PUSH2 0x185 CALLDATASIZE PUSH1 0x4 PUSH2 0xF5E JUMP JUMPDEST PUSH2 0x438 JUMP JUMPDEST PUSH1 0x40 MLOAD PUSH2 0x146 SWAP2 SWAP1 PUSH2 0x138E JUMP JUMPDEST PUSH2 0x19F PUSH2 0x473 JUMP JUMPDEST PUSH1 0x40 MLOAD PUSH2 0x146 SWAP2 SWAP1 PUSH2 0xFE6 JUMP JUMPDEST PUSH2 0x19F PUSH2 0x482 JUMP JUMPDEST PUSH2 0x139 PUSH2 0x491 JUMP JUMPDEST PUSH2 0x162 PUSH2 0x1CA CALLDATASIZE PUSH1 0x4 PUSH2 0xF5E JUMP JUMPDEST PUSH2 0x497 JUMP JUMPDEST PUSH2 0x19F PUSH2 0x522 JUMP JUMPDEST PUSH2 0x139 PUSH2 0x573 JUMP JUMPDEST PUSH2 0x162 PUSH2 0x579 JUMP JUMPDEST PUSH2 0x162 PUSH2 0x1F5 CALLDATASIZE PUSH1 0x4 PUSH2 0xF5E JUMP JUMPDEST PUSH2 0x5C4 JUMP JUMPDEST PUSH2 0x162 PUSH2 0x208 CALLDATASIZE PUSH1 0x4 PUSH2 0xF9A JUMP JUMPDEST PUSH2 0x675 JUMP JUMPDEST PUSH2 0x19F PUSH2 0x21B CALLDATASIZE PUSH1 0x4 PUSH2 0xF9A JUMP JUMPDEST PUSH2 0x70B JUMP JUMPDEST PUSH2 0x19F PUSH2 0x726 JUMP JUMPDEST PUSH2 0x139 PUSH2 0x735 JUMP JUMPDEST PUSH2 0x162 PUSH2 0x741 JUMP JUMPDEST PUSH2 0x139 PUSH2 0x8D0 JUMP JUMPDEST PUSH2 0x162 PUSH2 0x24E CALLDATASIZE PUSH1 0x4 PUSH2 0xF5E JUMP JUMPDEST PUSH2 0x8D6 JUMP JUMPDEST PUSH2 0x162 PUSH2 0x261 CALLDATASIZE PUSH1 0x4 PUSH2 0xF9A JUMP JUMPDEST PUSH2 0x947 JUMP JUMPDEST PUSH1 0x0 PUSH2 0x270 PUSH2 0x473 JUMP JUMPDEST PUSH1 0x1 PUSH1 0x1 PUSH1 0xA0 SHL SUB AND PUSH4 0x70A08231 ADDRESS PUSH1 0x40 MLOAD DUP3 PUSH4 0xFFFFFFFF AND PUSH1 0xE0 SHL DUP2 MSTORE PUSH1 0x4 ADD PUSH2 0x29B SWAP2 SWAP1 PUSH2 0xFE6 JUMP JUMPDEST PUSH1 0x20 PUSH1 0x40 MLOAD DUP1 DUP4 SUB DUP2 DUP7 DUP1 EXTCODESIZE ISZERO DUP1 ISZERO PUSH2 0x2B3 JUMPI PUSH1 0x0 DUP1 REVERT JUMPDEST POP GAS STATICCALL ISZERO DUP1 ISZERO PUSH2 0x2C7 JUMPI RETURNDATASIZE PUSH1 0x0 DUP1 RETURNDATACOPY RETURNDATASIZE PUSH1 0x0 REVERT JUMPDEST POP POP POP POP PUSH1 0x40 MLOAD RETURNDATASIZE PUSH1 0x1F NOT PUSH1 0x1F DUP3 ADD AND DUP3 ADD DUP1 PUSH1 0x40 MSTORE POP DUP2 ADD SWAP1 PUSH2 0x2EB SWAP2 SWAP1 PUSH2 0xFB2 JUMP JUMPDEST SWAP1 POP SWAP1 JUMP JUMPDEST PUSH2 0x2F8 PUSH2 0xCD9 JUMP JUMPDEST PUSH1 0x1 PUSH1 0x1 PUSH1 0xA0 SHL SUB AND PUSH2 0x309 PUSH2 0x726 JUMP JUMPDEST PUSH1 0x1 PUSH1 0x1 PUSH1 0xA0 SHL SUB AND EQ PUSH2 0x338 JUMPI PUSH1 0x40 MLOAD PUSH3 0x461BCD PUSH1 0xE5 SHL DUP2 MSTORE PUSH1 0x4 ADD PUSH2 0x32F SWAP1 PUSH2 0x11BE JUMP JUMPDEST PUSH1 0x40 MLOAD DUP1 SWAP2 SUB SWAP1 REVERT JUMPDEST PUSH1 0xC DUP2 SWAP1 SSTORE PUSH1 0x40 MLOAD DUP2 SWAP1 CALLER SWAP1 PUSH32 0x45EFD08C5C5A5D195A14454F3DC66A5151733A96A6E5544E6BEDABB9425BD8FB SWAP1 PUSH1 0x0 SWAP1 LOG3 POP JUMP JUMPDEST PUSH2 0x375 PUSH2 0xCD9 JUMP JUMPDEST PUSH1 0x1 PUSH1 0x1 PUSH1 0xA0 SHL SUB AND PUSH2 0x386 PUSH2 0x726 JUMP JUMPDEST PUSH1 0x1 PUSH1 0x1 PUSH1 0xA0 SHL SUB AND EQ PUSH2 0x3AC JUMPI PUSH1 0x40 MLOAD PUSH3 0x461BCD PUSH1 0xE5 SHL DUP2 MSTORE PUSH1 0x4 ADD PUSH2 0x32F SWAP1 PUSH2 0x11BE JUMP JUMPDEST PUSH1 0x1 PUSH1 0x1 PUSH1 0xA0 SHL SUB DUP2 AND PUSH2 0x3D2 JUMPI PUSH1 0x40 MLOAD PUSH3 0x461BCD PUSH1 0xE5 SHL DUP2 MSTORE PUSH1 0x4 ADD PUSH2 0x32F SWAP1 PUSH2 0x1144 JUMP JUMPDEST PUSH1 0x8 DUP1 SLOAD PUSH1 0x1 PUSH1 0x1 PUSH1 0xA0 SHL SUB NOT AND PUSH1 0x1 PUSH1 0x1 PUSH1 0xA0 SHL SUB DUP4 AND OR SWAP1 SSTORE PUSH2 0x3FA TIMESTAMP PUSH3 0x15180 PUSH2 0x13AE JUMP JUMPDEST PUSH1 0xA DUP2 SWAP1 SSTORE PUSH1 0x40 MLOAD PUSH1 0x1 PUSH1 0x1 PUSH1 0xA0 SHL SUB DUP4 AND SWAP1 CALLER SWAP1 PUSH32 0xA20D7DDB41A040B4DD0E9E5DB34547291BED37C1B72A2F0834888D1D16FE7B29 SWAP1 PUSH1 0x0 SWAP1 LOG4 POP JUMP JUMPDEST PUSH2 0x440 PUSH2 0xF44 JUMP JUMPDEST POP PUSH1 0x1 PUSH1 0x1 PUSH1 0xA0 SHL SUB AND PUSH1 0x0 SWAP1 DUP2 MSTORE PUSH1 0x4 PUSH1 0x20 SWAP1 DUP2 MSTORE PUSH1 0x40 SWAP2 DUP3 SWAP1 KECCAK256 DUP3 MLOAD DUP1 DUP5 ADD SWAP1 SWAP4 MSTORE DUP1 SLOAD DUP4 MSTORE PUSH1 0x1 ADD SLOAD SWAP1 DUP3 ADD MSTORE SWAP1 JUMP JUMPDEST PUSH1 0x7 SLOAD PUSH1 0x1 PUSH1 0x1 PUSH1 0xA0 SHL SUB AND SWAP1 JUMP JUMPDEST PUSH1 0x9 SLOAD PUSH1 0x1 PUSH1 0x1 PUSH1 0xA0 SHL SUB AND SWAP1 JUMP JUMPDEST PUSH1 0xC SLOAD SWAP1 JUMP JUMPDEST PUSH2 0x49F PUSH2 0xCD9 JUMP JUMPDEST PUSH1 0x1 PUSH1 0x1 PUSH1 0xA0 SHL SUB AND PUSH2 0x4B0 PUSH2 0x726 JUMP JUMPDEST PUSH1 0x1 PUSH1 0x1 PUSH1 0xA0 SHL SUB AND EQ PUSH2 0x4D6 JUMPI PUSH1 0x40 MLOAD PUSH3 0x461BCD PUSH1 0xE5 SHL DUP2 MSTORE PUSH1 0x4 ADD PUSH2 0x32F SWAP1 PUSH2 0x11BE JUMP JUMPDEST PUSH1 0x7 DUP1 SLOAD PUSH1 0x1 PUSH1 0x1 PUSH1 0xA0 SHL SUB NOT AND PUSH1 0x1 PUSH1 0x1 PUSH1 0xA0 SHL SUB DUP4 AND SWAP1 DUP2 OR SWAP1 SWAP2 SSTORE PUSH1 0x40 MLOAD CALLER SWAP1 PUSH32 0x9A789BA6A022C5DD35CBC1DDA6260E60FCC2516B6D0523DB7D3A3794755D5D05 SWAP1 PUSH1 0x0 SWAP1 LOG3 POP JUMP JUMPDEST PUSH1 0x0 PUSH2 0x52C PUSH2 0xCD9 JUMP JUMPDEST PUSH1 0x1 PUSH1 0x1 PUSH1 0xA0 SHL SUB AND PUSH2 0x53D PUSH2 0x726 JUMP JUMPDEST PUSH1 0x1 PUSH1 0x1 PUSH1 0xA0 SHL SUB AND EQ PUSH2 0x563 JUMPI PUSH1 0x40 MLOAD PUSH3 0x461BCD PUSH1 0xE5 SHL DUP2 MSTORE PUSH1 0x4 ADD PUSH2 0x32F SWAP1 PUSH2 0x11BE JUMP JUMPDEST POP PUSH1 0xB SLOAD PUSH1 0x1 PUSH1 0x1 PUSH1 0xA0 SHL SUB AND SWAP1 JUMP JUMPDEST PUSH1 0x3 SLOAD SWAP1 JUMP JUMPDEST PUSH2 0x581 PUSH2 0xCD9 JUMP JUMPDEST PUSH1 0x1 PUSH1 0x1 PUSH1 0xA0 SHL SUB AND PUSH2 0x592 PUSH2 0x726 JUMP JUMPDEST PUSH1 0x1 PUSH1 0x1 PUSH1 0xA0 SHL SUB AND EQ PUSH2 0x5B8 JUMPI PUSH1 0x40 MLOAD PUSH3 0x461BCD PUSH1 0xE5 SHL DUP2 MSTORE PUSH1 0x4 ADD PUSH2 0x32F SWAP1 PUSH2 0x11BE JUMP JUMPDEST PUSH2 0x5C2 PUSH1 0x0 PUSH2 0xCDD JUMP JUMPDEST JUMP JUMPDEST PUSH2 0x5CC PUSH2 0xCD9 JUMP JUMPDEST PUSH1 0x1 PUSH1 0x1 PUSH1 0xA0 SHL SUB AND PUSH2 0x5DD PUSH2 0x726 JUMP JUMPDEST PUSH1 0x1 PUSH1 0x1 PUSH1 0xA0 SHL SUB AND EQ PUSH2 0x603 JUMPI PUSH1 0x40 MLOAD PUSH3 0x461BCD PUSH1 0xE5 SHL DUP2 MSTORE PUSH1 0x4 ADD PUSH2 0x32F SWAP1 PUSH2 0x11BE JUMP JUMPDEST PUSH1 0x1 PUSH1 0x1 PUSH1 0xA0 SHL SUB DUP2 AND PUSH2 0x629 JUMPI PUSH1 0x40 MLOAD PUSH3 0x461BCD PUSH1 0xE5 SHL DUP2 MSTORE PUSH1 0x4 ADD PUSH2 0x32F SWAP1 PUSH2 0x1250 JUMP JUMPDEST PUSH1 0xB DUP1 SLOAD PUSH1 0x1 PUSH1 0x1 PUSH1 0xA0 SHL SUB NOT AND PUSH1 0x1 PUSH1 0x1 PUSH1 0xA0 SHL SUB DUP4 AND SWAP1 DUP2 OR SWAP1 SWAP2 SSTORE PUSH1 0x40 MLOAD CALLER SWAP1 PUSH32 0x11998873D3E1973E66FC772D04F0296B3947FFFF7C65E5947B36E3AB2A4C3B22 SWAP1 PUSH1 0x0 SWAP1 LOG3 POP JUMP JUMPDEST PUSH2 0x67D PUSH2 0xCD9 JUMP JUMPDEST PUSH1 0x1 PUSH1 0x1 PUSH1 0xA0 SHL SUB AND PUSH2 0x68E PUSH2 0x726 JUMP JUMPDEST PUSH1 0x1 PUSH1 0x1 PUSH1 0xA0 SHL SUB AND EQ PUSH2 0x6B4 JUMPI PUSH1 0x40 MLOAD PUSH3 0x461BCD PUSH1 0xE5 SHL DUP2 MSTORE PUSH1 0x4 ADD PUSH2 0x32F SWAP1 PUSH2 0x11BE JUMP JUMPDEST PUSH1 0x2 SLOAD DUP2 LT ISZERO PUSH2 0x6D6 JUMPI PUSH1 0x40 MLOAD PUSH3 0x461BCD PUSH1 0xE5 SHL DUP2 MSTORE PUSH1 0x4 ADD PUSH2 0x32F SWAP1 PUSH2 0x11F3 JUMP JUMPDEST PUSH1 0x3 DUP2 SWAP1 SSTORE PUSH1 0x40 MLOAD DUP2 SWAP1 CALLER SWAP1 PUSH32 0x54144A6FD4E0678ECF30ADC6DC4C67D39D8180DC36509B997C472DD399A08548 SWAP1 PUSH1 0x0 SWAP1 LOG3 POP JUMP JUMPDEST PUSH1 0x0 SWAP1 DUP2 MSTORE PUSH1 0x5 PUSH1 0x20 MSTORE PUSH1 0x40 SWAP1 KECCAK256 SLOAD PUSH1 0x1 PUSH1 0x1 PUSH1 0xA0 SHL SUB AND SWAP1 JUMP JUMPDEST PUSH1 0x0 SLOAD PUSH1 0x1 PUSH1 0x1 PUSH1 0xA0 SHL SUB AND SWAP1 JUMP JUMPDEST PUSH1 0x0 PUSH2 0x2EB PUSH1 0x1 PUSH2 0xD2D JUMP JUMPDEST PUSH1 0x8 SLOAD PUSH1 0x9 SLOAD PUSH1 0x1 PUSH1 0x1 PUSH1 0xA0 SHL SUB SWAP1 DUP2 AND SWAP2 AND EQ DUP1 ISZERO SWAP1 PUSH2 0x763 JUMPI POP PUSH1 0xA SLOAD TIMESTAMP GT JUMPDEST ISZERO PUSH2 0x78B JUMPI PUSH1 0x8 SLOAD PUSH1 0x9 DUP1 SLOAD PUSH1 0x1 PUSH1 0x1 PUSH1 0xA0 SHL SUB NOT AND PUSH1 0x1 PUSH1 0x1 PUSH1 0xA0 SHL SUB SWAP1 SWAP3 AND SWAP2 SWAP1 SWAP2 OR SWAP1 SSTORE JUMPDEST PUSH1 0xB SLOAD PUSH1 0x1 PUSH1 0x1 PUSH1 0xA0 SHL SUB AND CALLER EQ DUP1 PUSH2 0x7BC JUMPI POP PUSH2 0x7A7 PUSH2 0x726 JUMP JUMPDEST PUSH1 0x1 PUSH1 0x1 PUSH1 0xA0 SHL SUB AND CALLER PUSH1 0x1 PUSH1 0x1 PUSH1 0xA0 SHL SUB AND EQ JUMPDEST PUSH2 0x7D8 JUMPI PUSH1 0x40 MLOAD PUSH3 0x461BCD PUSH1 0xE5 SHL DUP2 MSTORE PUSH1 0x4 ADD PUSH2 0x32F SWAP1 PUSH2 0x1365 JUMP JUMPDEST PUSH1 0x0 PUSH2 0x7E2 PUSH2 0x473 JUMP JUMPDEST PUSH1 0x1 PUSH1 0x1 PUSH1 0xA0 SHL SUB AND PUSH4 0x70A08231 ADDRESS PUSH1 0x40 MLOAD DUP3 PUSH4 0xFFFFFFFF AND PUSH1 0xE0 SHL DUP2 MSTORE PUSH1 0x4 ADD PUSH2 0x80D SWAP2 SWAP1 PUSH2 0xFE6 JUMP JUMPDEST PUSH1 0x20 PUSH1 0x40 MLOAD DUP1 DUP4 SUB DUP2 DUP7 DUP1 EXTCODESIZE ISZERO DUP1 ISZERO PUSH2 0x825 JUMPI PUSH1 0x0 DUP1 REVERT JUMPDEST POP GAS STATICCALL ISZERO DUP1 ISZERO PUSH2 0x839 JUMPI RETURNDATASIZE PUSH1 0x0 DUP1 RETURNDATACOPY RETURNDATASIZE PUSH1 0x0 REVERT JUMPDEST POP POP POP POP PUSH1 0x40 MLOAD RETURNDATASIZE PUSH1 0x1F NOT PUSH1 0x1F DUP3 ADD AND DUP3 ADD DUP1 PUSH1 0x40 MSTORE POP DUP2 ADD SWAP1 PUSH2 0x85D SWAP2 SWAP1 PUSH2 0xFB2 JUMP JUMPDEST SWAP1 POP PUSH2 0x885 ADDRESS PUSH2 0x86B PUSH2 0x482 JUMP JUMPDEST DUP4 PUSH2 0x874 PUSH2 0x473 JUMP JUMPDEST PUSH1 0x1 PUSH1 0x1 PUSH1 0xA0 SHL SUB AND SWAP3 SWAP2 SWAP1 PUSH2 0xD31 JUMP JUMPDEST DUP1 PUSH2 0x88E PUSH2 0x482 JUMP JUMPDEST PUSH1 0x1 PUSH1 0x1 PUSH1 0xA0 SHL SUB AND ADDRESS PUSH1 0x1 PUSH1 0x1 PUSH1 0xA0 SHL SUB AND PUSH32 0x73B4085607A6C9FCA1C3D2544335BC2CC164C57DEBCEDE3D0A05D79FB524C1DF PUSH1 0x40 MLOAD PUSH1 0x40 MLOAD DUP1 SWAP2 SUB SWAP1 LOG4 POP JUMP JUMPDEST PUSH1 0x6 SLOAD SWAP1 JUMP JUMPDEST PUSH2 0x8DE PUSH2 0xCD9 JUMP JUMPDEST PUSH1 0x1 PUSH1 0x1 PUSH1 0xA0 SHL SUB AND PUSH2 0x8EF PUSH2 0x726 JUMP JUMPDEST PUSH1 0x1 PUSH1 0x1 PUSH1 0xA0 SHL SUB AND EQ PUSH2 0x915 JUMPI PUSH1 0x40 MLOAD PUSH3 0x461BCD PUSH1 0xE5 SHL DUP2 MSTORE PUSH1 0x4 ADD PUSH2 0x32F SWAP1 PUSH2 0x11BE JUMP JUMPDEST PUSH1 0x1 PUSH1 0x1 PUSH1 0xA0 SHL SUB DUP2 AND PUSH2 0x93B JUMPI PUSH1 0x40 MLOAD PUSH3 0x461BCD PUSH1 0xE5 SHL DUP2 MSTORE PUSH1 0x4 ADD PUSH2 0x32F SWAP1 PUSH2 0x1051 JUMP JUMPDEST PUSH2 0x944 DUP2 PUSH2 0xCDD JUMP JUMPDEST POP JUMP JUMPDEST PUSH2 0x94F PUSH2 0x8D0 JUMP JUMPDEST TIMESTAMP GT PUSH2 0x96D JUMPI PUSH1 0x40 MLOAD PUSH3 0x461BCD PUSH1 0xE5 SHL DUP2 MSTORE PUSH1 0x4 ADD PUSH2 0x32F SWAP1 PUSH2 0x1097 JUMP JUMPDEST PUSH1 0x8 SLOAD PUSH1 0x9 SLOAD PUSH1 0x1 PUSH1 0x1 PUSH1 0xA0 SHL SUB SWAP1 DUP2 AND SWAP2 AND EQ DUP1 ISZERO SWAP1 PUSH2 0x98F JUMPI POP PUSH1 0xA SLOAD TIMESTAMP GT JUMPDEST ISZERO PUSH2 0x9B7 JUMPI PUSH1 0x8 SLOAD PUSH1 0x9 DUP1 SLOAD PUSH1 0x1 PUSH1 0x1 PUSH1 0xA0 SHL SUB NOT AND PUSH1 0x1 PUSH1 0x1 PUSH1 0xA0 SHL SUB SWAP1 SWAP3 AND SWAP2 SWAP1 SWAP2 OR SWAP1 SSTORE JUMPDEST CALLER PUSH1 0x0 SWAP1 DUP2 MSTORE PUSH1 0x4 PUSH1 0x20 MSTORE PUSH1 0x40 SWAP1 KECCAK256 SLOAD ISZERO PUSH2 0xB43 JUMPI CALLER PUSH1 0x0 SWAP1 DUP2 MSTORE PUSH1 0x4 PUSH1 0x20 MSTORE PUSH1 0x40 DUP2 KECCAK256 PUSH1 0x1 ADD SLOAD PUSH3 0x15180 SWAP1 PUSH2 0x9EF SWAP1 TIMESTAMP SWAP1 PUSH2 0x1405 JUMP JUMPDEST PUSH2 0x9F9 SWAP2 SWAP1 PUSH2 0x13C6 JUMP JUMPDEST SWAP1 POP DUP1 ISZERO PUSH2 0xA3A JUMPI PUSH1 0x2 SLOAD DUP3 LT ISZERO DUP1 ISZERO PUSH2 0xA1E JUMPI POP PUSH1 0x3 SLOAD PUSH2 0xA1B DUP3 DUP5 PUSH2 0x13AE JUMP JUMPDEST GT ISZERO JUMPDEST PUSH2 0xA3A JUMPI PUSH1 0x40 MLOAD PUSH3 0x461BCD PUSH1 0xE5 SHL DUP2 MSTORE PUSH1 0x4 ADD PUSH2 0x32F SWAP1 PUSH2 0x1308 JUMP JUMPDEST PUSH2 0xA42 PUSH2 0x491 JUMP JUMPDEST PUSH2 0xA4C SWAP1 DUP4 PUSH2 0x13E6 JUMP JUMPDEST PUSH2 0xA54 PUSH2 0x473 JUMP JUMPDEST PUSH1 0x1 PUSH1 0x1 PUSH1 0xA0 SHL SUB AND PUSH4 0x70A08231 CALLER PUSH1 0x40 MLOAD DUP3 PUSH4 0xFFFFFFFF AND PUSH1 0xE0 SHL DUP2 MSTORE PUSH1 0x4 ADD PUSH2 0xA7F SWAP2 SWAP1 PUSH2 0xFE6 JUMP JUMPDEST PUSH1 0x20 PUSH1 0x40 MLOAD DUP1 DUP4 SUB DUP2 DUP7 DUP1 EXTCODESIZE ISZERO DUP1 ISZERO PUSH2 0xA97 JUMPI PUSH1 0x0 DUP1 REVERT JUMPDEST POP GAS STATICCALL ISZERO DUP1 ISZERO PUSH2 0xAAB JUMPI RETURNDATASIZE PUSH1 0x0 DUP1 RETURNDATACOPY RETURNDATASIZE PUSH1 0x0 REVERT JUMPDEST POP POP POP POP PUSH1 0x40 MLOAD RETURNDATASIZE PUSH1 0x1F NOT PUSH1 0x1F DUP3 ADD AND DUP3 ADD DUP1 PUSH1 0x40 MSTORE POP DUP2 ADD SWAP1 PUSH2 0xACF SWAP2 SWAP1 PUSH2 0xFB2 JUMP JUMPDEST LT ISZERO PUSH2 0xAED JUMPI PUSH1 0x40 MLOAD PUSH3 0x461BCD PUSH1 0xE5 SHL DUP2 MSTORE PUSH1 0x4 ADD PUSH2 0x32F SWAP1 PUSH2 0x1187 JUMP JUMPDEST PUSH2 0xB13 CALLER PUSH2 0xAF9 PUSH2 0x482 JUMP JUMPDEST PUSH2 0xB01 PUSH2 0x491 JUMP JUMPDEST PUSH2 0xB0B SWAP1 DUP7 PUSH2 0x13E6 JUMP JUMPDEST PUSH2 0x874 PUSH2 0x473 JUMP JUMPDEST PUSH2 0xB20 DUP3 PUSH3 0x15180 PUSH2 0x13E6 JUMP JUMPDEST PUSH2 0xB2A SWAP1 TIMESTAMP PUSH2 0x13AE JUMP JUMPDEST CALLER PUSH1 0x0 SWAP1 DUP2 MSTORE PUSH1 0x4 PUSH1 0x20 MSTORE PUSH1 0x40 SWAP1 KECCAK256 PUSH1 0x1 ADD SSTORE POP PUSH2 0xC9A JUMP JUMPDEST PUSH1 0x2 SLOAD DUP2 LT ISZERO DUP1 ISZERO PUSH2 0xB57 JUMPI POP PUSH1 0x3 SLOAD DUP2 GT ISZERO JUMPDEST PUSH2 0xB73 JUMPI PUSH1 0x40 MLOAD PUSH3 0x461BCD PUSH1 0xE5 SHL DUP2 MSTORE PUSH1 0x4 ADD PUSH2 0x32F SWAP1 PUSH2 0x1308 JUMP JUMPDEST PUSH2 0xB7B PUSH2 0x491 JUMP JUMPDEST PUSH2 0xB85 SWAP1 DUP3 PUSH2 0x13E6 JUMP JUMPDEST PUSH2 0xB8D PUSH2 0x473 JUMP JUMPDEST PUSH1 0x1 PUSH1 0x1 PUSH1 0xA0 SHL SUB AND PUSH4 0x70A08231 CALLER PUSH1 0x40 MLOAD DUP3 PUSH4 0xFFFFFFFF AND PUSH1 0xE0 SHL DUP2 MSTORE PUSH1 0x4 ADD PUSH2 0xBB8 SWAP2 SWAP1 PUSH2 0xFE6 JUMP JUMPDEST PUSH1 0x20 PUSH1 0x40 MLOAD DUP1 DUP4 SUB DUP2 DUP7 DUP1 EXTCODESIZE ISZERO DUP1 ISZERO PUSH2 0xBD0 JUMPI PUSH1 0x0 DUP1 REVERT JUMPDEST POP GAS STATICCALL ISZERO DUP1 ISZERO PUSH2 0xBE4 JUMPI RETURNDATASIZE PUSH1 0x0 DUP1 RETURNDATACOPY RETURNDATASIZE PUSH1 0x0 REVERT JUMPDEST POP POP POP POP PUSH1 0x40 MLOAD RETURNDATASIZE PUSH1 0x1F NOT PUSH1 0x1F DUP3 ADD AND DUP3 ADD DUP1 PUSH1 0x40 MSTORE POP DUP2 ADD SWAP1 PUSH2 0xC08 SWAP2 SWAP1 PUSH2 0xFB2 JUMP JUMPDEST LT ISZERO PUSH2 0xC26 JUMPI PUSH1 0x40 MLOAD PUSH3 0x461BCD PUSH1 0xE5 SHL DUP2 MSTORE PUSH1 0x4 ADD PUSH2 0x32F SWAP1 PUSH2 0x1187 JUMP JUMPDEST PUSH2 0xC44 CALLER PUSH2 0xC32 PUSH2 0x482 JUMP JUMPDEST PUSH2 0xC3A PUSH2 0x491 JUMP JUMPDEST PUSH2 0xB0B SWAP1 DUP6 PUSH2 0x13E6 JUMP JUMPDEST PUSH2 0xC4E PUSH1 0x1 PUSH2 0xD8F JUMP JUMPDEST PUSH1 0x0 PUSH2 0xC5A PUSH1 0x1 PUSH2 0xD2D JUMP JUMPDEST CALLER PUSH1 0x0 SWAP1 DUP2 MSTORE PUSH1 0x4 PUSH1 0x20 MSTORE PUSH1 0x40 SWAP1 KECCAK256 DUP2 SWAP1 SSTORE SWAP1 POP PUSH2 0xC7B DUP3 PUSH3 0x15180 PUSH2 0x13E6 JUMP JUMPDEST PUSH2 0xC85 SWAP1 TIMESTAMP PUSH2 0x13AE JUMP JUMPDEST CALLER PUSH1 0x0 SWAP1 DUP2 MSTORE PUSH1 0x4 PUSH1 0x20 MSTORE PUSH1 0x40 SWAP1 KECCAK256 PUSH1 0x1 ADD SSTORE POP JUMPDEST CALLER PUSH1 0x0 DUP2 DUP2 MSTORE PUSH1 0x4 PUSH1 0x20 MSTORE PUSH1 0x40 DUP1 DUP3 KECCAK256 PUSH1 0x1 ADD SLOAD SWAP1 MLOAD SWAP1 SWAP3 SWAP2 PUSH32 0x17B208A35A2A33AE0197D534865BAE3E6BF6D2C883B26280E40D50207C907A9 SWAP2 LOG3 POP JUMP JUMPDEST CALLER SWAP1 JUMP JUMPDEST PUSH1 0x0 DUP1 SLOAD PUSH1 0x1 PUSH1 0x1 PUSH1 0xA0 SHL SUB DUP4 DUP2 AND PUSH1 0x1 PUSH1 0x1 PUSH1 0xA0 SHL SUB NOT DUP4 AND DUP2 OR DUP5 SSTORE PUSH1 0x40 MLOAD SWAP2 SWAP1 SWAP3 AND SWAP3 DUP4 SWAP2 PUSH32 0x8BE0079C531659141344CD1FD0A4F28419497F9722A3DAAFE3B4186F6B6457E0 SWAP2 SWAP1 LOG3 POP POP JUMP JUMPDEST SLOAD SWAP1 JUMP JUMPDEST PUSH2 0xD89 DUP5 PUSH4 0x23B872DD PUSH1 0xE0 SHL DUP6 DUP6 DUP6 PUSH1 0x40 MLOAD PUSH1 0x24 ADD PUSH2 0xD52 SWAP4 SWAP3 SWAP2 SWAP1 PUSH2 0xFFA JUMP JUMPDEST PUSH1 0x40 DUP1 MLOAD PUSH1 0x1F NOT DUP2 DUP5 SUB ADD DUP2 MSTORE SWAP2 SWAP1 MSTORE PUSH1 0x20 DUP2 ADD DUP1 MLOAD PUSH1 0x1 PUSH1 0x1 PUSH1 0xE0 SHL SUB AND PUSH1 0x1 PUSH1 0x1 PUSH1 0xE0 SHL SUB NOT SWAP1 SWAP4 AND SWAP3 SWAP1 SWAP3 OR SWAP1 SWAP2 MSTORE PUSH2 0xD98 JUMP JUMPDEST POP POP POP POP JUMP JUMPDEST DUP1 SLOAD PUSH1 0x1 ADD SWAP1 SSTORE JUMP JUMPDEST PUSH1 0x0 PUSH2 0xDED DUP3 PUSH1 0x40 MLOAD DUP1 PUSH1 0x40 ADD PUSH1 0x40 MSTORE DUP1 PUSH1 0x20 DUP2 MSTORE PUSH1 0x20 ADD PUSH32 0x5361666545524332303A206C6F772D6C6576656C2063616C6C206661696C6564 DUP2 MSTORE POP DUP6 PUSH1 0x1 PUSH1 0x1 PUSH1 0xA0 SHL SUB AND PUSH2 0xE2C SWAP1 SWAP3 SWAP2 SWAP1 PUSH4 0xFFFFFFFF AND JUMP JUMPDEST DUP1 MLOAD SWAP1 SWAP2 POP ISZERO PUSH2 0xE27 JUMPI DUP1 DUP1 PUSH1 0x20 ADD SWAP1 MLOAD DUP2 ADD SWAP1 PUSH2 0xE0B SWAP2 SWAP1 PUSH2 0xF7A JUMP JUMPDEST PUSH2 0xE27 JUMPI PUSH1 0x40 MLOAD PUSH3 0x461BCD PUSH1 0xE5 SHL DUP2 MSTORE PUSH1 0x4 ADD PUSH2 0x32F SWAP1 PUSH2 0x12BE JUMP JUMPDEST POP POP POP JUMP JUMPDEST PUSH1 0x60 PUSH2 0xE3B DUP5 DUP5 PUSH1 0x0 DUP6 PUSH2 0xE45 JUMP JUMPDEST SWAP1 POP JUMPDEST SWAP4 SWAP3 POP POP POP JUMP JUMPDEST PUSH1 0x60 DUP3 SELFBALANCE LT ISZERO PUSH2 0xE67 JUMPI PUSH1 0x40 MLOAD PUSH3 0x461BCD PUSH1 0xE5 SHL DUP2 MSTORE PUSH1 0x4 ADD PUSH2 0x32F SWAP1 PUSH2 0x10FE JUMP JUMPDEST PUSH2 0xE70 DUP6 PUSH2 0xF05 JUMP JUMPDEST PUSH2 0xE8C JUMPI PUSH1 0x40 MLOAD PUSH3 0x461BCD PUSH1 0xE5 SHL DUP2 MSTORE PUSH1 0x4 ADD PUSH2 0x32F SWAP1 PUSH2 0x1287 JUMP JUMPDEST PUSH1 0x0 DUP1 DUP7 PUSH1 0x1 PUSH1 0x1 PUSH1 0xA0 SHL SUB AND DUP6 DUP8 PUSH1 0x40 MLOAD PUSH2 0xEA8 SWAP2 SWAP1 PUSH2 0xFCA JUMP JUMPDEST PUSH1 0x0 PUSH1 0x40 MLOAD DUP1 DUP4 SUB DUP2 DUP6 DUP8 GAS CALL SWAP3 POP POP POP RETURNDATASIZE DUP1 PUSH1 0x0 DUP2 EQ PUSH2 0xEE5 JUMPI PUSH1 0x40 MLOAD SWAP2 POP PUSH1 0x1F NOT PUSH1 0x3F RETURNDATASIZE ADD AND DUP3 ADD PUSH1 0x40 MSTORE RETURNDATASIZE DUP3 MSTORE RETURNDATASIZE PUSH1 0x0 PUSH1 0x20 DUP5 ADD RETURNDATACOPY PUSH2 0xEEA JUMP JUMPDEST PUSH1 0x60 SWAP2 POP JUMPDEST POP SWAP2 POP SWAP2 POP PUSH2 0xEFA DUP3 DUP3 DUP7 PUSH2 0xF0B JUMP JUMPDEST SWAP8 SWAP7 POP POP POP POP POP POP POP JUMP JUMPDEST EXTCODESIZE ISZERO ISZERO SWAP1 JUMP JUMPDEST PUSH1 0x60 DUP4 ISZERO PUSH2 0xF1A JUMPI POP DUP2 PUSH2 0xE3E JUMP JUMPDEST DUP3 MLOAD ISZERO PUSH2 0xF2A JUMPI DUP3 MLOAD DUP1 DUP5 PUSH1 0x20 ADD REVERT JUMPDEST DUP2 PUSH1 0x40 MLOAD PUSH3 0x461BCD PUSH1 0xE5 SHL DUP2 MSTORE PUSH1 0x4 ADD PUSH2 0x32F SWAP2 SWAP1 PUSH2 0x101E JUMP JUMPDEST PUSH1 0x40 MLOAD DUP1 PUSH1 0x40 ADD PUSH1 0x40 MSTORE DUP1 PUSH1 0x0 DUP2 MSTORE PUSH1 0x20 ADD PUSH1 0x0 DUP2 MSTORE POP SWAP1 JUMP JUMPDEST PUSH1 0x0 PUSH1 0x20 DUP3 DUP5 SUB SLT ISZERO PUSH2 0xF6F JUMPI DUP1 DUP2 REVERT JUMPDEST DUP2 CALLDATALOAD PUSH2 0xE3E DUP2 PUSH2 0x145E JUMP JUMPDEST PUSH1 0x0 PUSH1 0x20 DUP3 DUP5 SUB SLT ISZERO PUSH2 0xF8B JUMPI DUP1 DUP2 REVERT JUMPDEST DUP2 MLOAD DUP1 ISZERO ISZERO DUP2 EQ PUSH2 0xE3E JUMPI DUP2 DUP3 REVERT JUMPDEST PUSH1 0x0 PUSH1 0x20 DUP3 DUP5 SUB SLT ISZERO PUSH2 0xFAB JUMPI DUP1 DUP2 REVERT JUMPDEST POP CALLDATALOAD SWAP2 SWAP1 POP JUMP JUMPDEST PUSH1 0x0 PUSH1 0x20 DUP3 DUP5 SUB SLT ISZERO PUSH2 0xFC3 JUMPI DUP1 DUP2 REVERT JUMPDEST POP MLOAD SWAP2 SWAP1 POP JUMP JUMPDEST PUSH1 0x0 DUP3 MLOAD PUSH2 0xFDC DUP2 DUP5 PUSH1 0x20 DUP8 ADD PUSH2 0x141C JUMP JUMPDEST SWAP2 SWAP1 SWAP2 ADD SWAP3 SWAP2 POP POP JUMP JUMPDEST PUSH1 0x1 PUSH1 0x1 PUSH1 0xA0 SHL SUB SWAP2 SWAP1 SWAP2 AND DUP2 MSTORE PUSH1 0x20 ADD SWAP1 JUMP JUMPDEST PUSH1 0x1 PUSH1 0x1 PUSH1 0xA0 SHL SUB SWAP4 DUP5 AND DUP2 MSTORE SWAP2 SWAP1 SWAP3 AND PUSH1 0x20 DUP3 ADD MSTORE PUSH1 0x40 DUP2 ADD SWAP2 SWAP1 SWAP2 MSTORE PUSH1 0x60 ADD SWAP1 JUMP JUMPDEST PUSH1 0x0 PUSH1 0x20 DUP3 MSTORE DUP3 MLOAD DUP1 PUSH1 0x20 DUP5 ADD MSTORE PUSH2 0x103D DUP2 PUSH1 0x40 DUP6 ADD PUSH1 0x20 DUP8 ADD PUSH2 0x141C JUMP JUMPDEST PUSH1 0x1F ADD PUSH1 0x1F NOT AND SWAP2 SWAP1 SWAP2 ADD PUSH1 0x40 ADD SWAP3 SWAP2 POP POP JUMP JUMPDEST PUSH1 0x20 DUP1 DUP3 MSTORE PUSH1 0x26 SWAP1 DUP3 ADD MSTORE PUSH32 0x4F776E61626C653A206E6577206F776E657220697320746865207A65726F2061 PUSH1 0x40 DUP3 ADD MSTORE PUSH6 0x646472657373 PUSH1 0xD0 SHL PUSH1 0x60 DUP3 ADD MSTORE PUSH1 0x80 ADD SWAP1 JUMP JUMPDEST PUSH1 0x20 DUP1 DUP3 MSTORE PUSH1 0x41 SWAP1 DUP3 ADD MSTORE PUSH32 0x41637469766554696D653A20596F752063616E277420657874656E6420737562 PUSH1 0x40 DUP3 ADD MSTORE PUSH32 0x736372697074696F6E206265666F726520746865206163746976652074696D65 PUSH1 0x60 DUP3 ADD MSTORE PUSH1 0x17 PUSH1 0xF9 SHL PUSH1 0x80 DUP3 ADD MSTORE PUSH1 0xA0 ADD SWAP1 JUMP JUMPDEST PUSH1 0x20 DUP1 DUP3 MSTORE PUSH1 0x26 SWAP1 DUP3 ADD MSTORE PUSH32 0x416464726573733A20696E73756666696369656E742062616C616E636520666F PUSH1 0x40 DUP3 ADD MSTORE PUSH6 0x1C8818D85B1B PUSH1 0xD2 SHL PUSH1 0x60 DUP3 ADD MSTORE PUSH1 0x80 ADD SWAP1 JUMP JUMPDEST PUSH1 0x20 DUP1 DUP3 MSTORE PUSH1 0x23 SWAP1 DUP3 ADD MSTORE PUSH32 0x4E65772062656E656669636961727920697320746865207A65726F2061646472 PUSH1 0x40 DUP3 ADD MSTORE PUSH3 0x657373 PUSH1 0xE8 SHL PUSH1 0x60 DUP3 ADD MSTORE PUSH1 0x80 ADD SWAP1 JUMP JUMPDEST PUSH1 0x20 DUP1 DUP3 MSTORE PUSH1 0x1B SWAP1 DUP3 ADD MSTORE PUSH32 0x43616E27742070617920737562736372697074696F6E20666565210000000000 PUSH1 0x40 DUP3 ADD MSTORE PUSH1 0x60 ADD SWAP1 JUMP JUMPDEST PUSH1 0x20 DUP1 DUP3 MSTORE DUP2 DUP2 ADD MSTORE PUSH32 0x4F776E61626C653A2063616C6C6572206973206E6F7420746865206F776E6572 PUSH1 0x40 DUP3 ADD MSTORE PUSH1 0x60 ADD SWAP1 JUMP JUMPDEST PUSH1 0x20 DUP1 DUP3 MSTORE PUSH1 0x37 SWAP1 DUP3 ADD MSTORE PUSH32 0x537562736372697074696F6E3A2043616E2774206265206C657373207468616E PUSH1 0x40 DUP3 ADD MSTORE PUSH32 0x206D696E20737562736372697074696F6E2074696D6521000000000000000000 PUSH1 0x60 DUP3 ADD MSTORE PUSH1 0x80 ADD SWAP1 JUMP JUMPDEST PUSH1 0x20 DUP1 DUP3 MSTORE PUSH1 0x1E SWAP1 DUP3 ADD MSTORE PUSH32 0x4E657720776F726B657220697320746865207A65726F20616464726573730000 PUSH1 0x40 DUP3 ADD MSTORE PUSH1 0x60 ADD SWAP1 JUMP JUMPDEST PUSH1 0x20 DUP1 DUP3 MSTORE PUSH1 0x1D SWAP1 DUP3 ADD MSTORE PUSH32 0x416464726573733A2063616C6C20746F206E6F6E2D636F6E7472616374000000 PUSH1 0x40 DUP3 ADD MSTORE PUSH1 0x60 ADD SWAP1 JUMP JUMPDEST PUSH1 0x20 DUP1 DUP3 MSTORE PUSH1 0x2A SWAP1 DUP3 ADD MSTORE PUSH32 0x5361666545524332303A204552433230206F7065726174696F6E20646964206E PUSH1 0x40 DUP3 ADD MSTORE PUSH10 0x1BDD081CDD58D8D95959 PUSH1 0xB2 SHL PUSH1 0x60 DUP3 ADD MSTORE PUSH1 0x80 ADD SWAP1 JUMP JUMPDEST PUSH1 0x20 DUP1 DUP3 MSTORE PUSH1 0x3C SWAP1 DUP3 ADD MSTORE PUSH32 0x537562736372697074696F6E3A2043616E2774206265206F7574206F66206D69 PUSH1 0x40 DUP3 ADD MSTORE PUSH32 0x6E20616E64206D617820737562736372697074696F6E2074696D652100000000 PUSH1 0x60 DUP3 ADD MSTORE PUSH1 0x80 ADD SWAP1 JUMP JUMPDEST PUSH1 0x20 DUP1 DUP3 MSTORE PUSH1 0xF SWAP1 DUP3 ADD MSTORE PUSH15 0x496E76616C69642063616C6C657221 PUSH1 0x88 SHL PUSH1 0x40 DUP3 ADD MSTORE PUSH1 0x60 ADD SWAP1 JUMP JUMPDEST DUP2 MLOAD DUP2 MSTORE PUSH1 0x20 SWAP2 DUP3 ADD MLOAD SWAP2 DUP2 ADD SWAP2 SWAP1 SWAP2 MSTORE PUSH1 0x40 ADD SWAP1 JUMP JUMPDEST SWAP1 DUP2 MSTORE PUSH1 0x20 ADD SWAP1 JUMP JUMPDEST PUSH1 0x0 DUP3 NOT DUP3 GT ISZERO PUSH2 0x13C1 JUMPI PUSH2 0x13C1 PUSH2 0x1448 JUMP JUMPDEST POP ADD SWAP1 JUMP JUMPDEST PUSH1 0x0 DUP3 PUSH2 0x13E1 JUMPI PUSH4 0x4E487B71 PUSH1 0xE0 SHL DUP2 MSTORE PUSH1 0x12 PUSH1 0x4 MSTORE PUSH1 0x24 DUP2 REVERT JUMPDEST POP DIV SWAP1 JUMP JUMPDEST PUSH1 0x0 DUP2 PUSH1 0x0 NOT DIV DUP4 GT DUP3 ISZERO ISZERO AND ISZERO PUSH2 0x1400 JUMPI PUSH2 0x1400 PUSH2 0x1448 JUMP JUMPDEST POP MUL SWAP1 JUMP JUMPDEST PUSH1 0x0 DUP3 DUP3 LT ISZERO PUSH2 0x1417 JUMPI PUSH2 0x1417 PUSH2 0x1448 JUMP JUMPDEST POP SUB SWAP1 JUMP JUMPDEST PUSH1 0x0 JUMPDEST DUP4 DUP2 LT ISZERO PUSH2 0x1437 JUMPI DUP2 DUP2 ADD MLOAD DUP4 DUP3 ADD MSTORE PUSH1 0x20 ADD PUSH2 0x141F JUMP JUMPDEST DUP4 DUP2 GT ISZERO PUSH2 0xD89 JUMPI POP POP PUSH1 0x0 SWAP2 ADD MSTORE JUMP JUMPDEST PUSH4 0x4E487B71 PUSH1 0xE0 SHL PUSH1 0x0 MSTORE PUSH1 0x11 PUSH1 0x4 MSTORE PUSH1 0x24 PUSH1 0x0 REVERT JUMPDEST PUSH1 0x1 PUSH1 0x1 PUSH1 0xA0 SHL SUB DUP2 AND DUP2 EQ PUSH2 0x944 JUMPI PUSH1 0x0 DUP1 REVERT INVALID LOG2 PUSH5 0x6970667358 0x22 SLT KECCAK256 0xE6 POP SWAP12 SWAP1 CODESIZE PUSH3 0xEDBEAA 0xB8 0xB2 0xC5 0xB3 0xEA PUSH26 0x6F2178C821C037D745C63C6C8D584D6CF64736F6C6343000800 STOP CALLER "
		},
		"gasEstimates": {
			"creation": {
				"codeDepositCost": "1057800",
				"executionCost": "infinite",
				"totalCost": "infinite"
			},
			"external": {
				"balanceTokenForPayment()": "infinite",
				"beneficiary()": "1093",
				"extendSubscription(uint256)": "infinite",
				"getActiveTime()": "1094",
				"getCurrentUserId()": "1085",
				"getMaxSubscriptionTime()": "1139",
				"getSubscriptionPrice()": "1073",
				"getUserAddressById(uint256)": "1302",
				"getUserDataByAddress(address)": "2350",
				"getWorker()": "2094",
				"owner()": "1181",
				"paymentToken()": "1182",
				"renounceOwnership()": "23527",
				"setBeneficiary(address)": "44185",
				"setMaxSubscriptionDay(uint256)": "23584",
				"setSubscriptionPrice(uint256)": "22737",
				"setTokenForPayment(address)": "23681",
				"transferOwnership(address)": "infinite",
				"updateWorker(address)": "23694",
				"withdrawTokenForPayment()": "infinite"
			}
		},
		"methodIdentifiers": {
			"balanceTokenForPayment()": "030ba6c8",
			"beneficiary()": "38af3eed",
			"extendSubscription(uint256)": "fc59282d",
			"getActiveTime()": "df03ba68",
			"getCurrentUserId()": "9e19a697",
			"getMaxSubscriptionTime()": "68ef3023",
			"getSubscriptionPrice()": "49e0eaf1",
			"getUserAddressById(uint256)": "8a03ad86",
			"getUserDataByAddress(address)": "223b839e",
			"getWorker()": "67eaeddb",
			"owner()": "8da5cb5b",
			"paymentToken()": "3013ce29",
			"renounceOwnership()": "715018a6",
			"setBeneficiary(address)": "1c31f710",
			"setMaxSubscriptionDay(uint256)": "855caad7",
			"setSubscriptionPrice(uint256)": "1a5ee779",
			"setTokenForPayment(address)": "59c77222",
			"transferOwnership(address)": "f2fde38b",
			"updateWorker(address)": "80e4cc9d",
			"withdrawTokenForPayment()": "bd3197dd"
		}
	},
	"abi": [
		{
			"inputs": [
				{
					"internalType": "contract IERC20",
					"name": "token_",
					"type": "address"
				}
			],
			"stateMutability": "nonpayable",
			"type": "constructor"
		},
		{
			"anonymous": false,
			"inputs": [
				{
					"indexed": true,
					"internalType": "address",
					"name": "caller",
					"type": "address"
				},
				{
					"indexed": true,
					"internalType": "uint256",
					"name": "newExpiryTime",
					"type": "uint256"
				}
			],
			"name": "ExtendedSubscription",
			"type": "event"
		},
		{
			"anonymous": false,
			"inputs": [
				{
					"indexed": true,
					"internalType": "address",
					"name": "previousOwner",
					"type": "address"
				},
				{
					"indexed": true,
					"internalType": "address",
					"name": "newOwner",
					"type": "address"
				}
			],
			"name": "OwnershipTransferred",
			"type": "event"
		},
		{
			"anonymous": false,
			"inputs": [
				{
					"indexed": true,
					"internalType": "address",
					"name": "caller",
					"type": "address"
				},
				{
					"indexed": true,
					"internalType": "address",
					"name": "beneficiary_",
					"type": "address"
				},
				{
					"indexed": true,
					"internalType": "uint256",
					"name": "activeTime",
					"type": "uint256"
				}
			],
			"name": "SetBeneficiary",
			"type": "event"
		},
		{
			"anonymous": false,
			"inputs": [
				{
					"indexed": true,
					"internalType": "address",
					"name": "caller",
					"type": "address"
				},
				{
					"indexed": true,
					"internalType": "uint256",
					"name": "maxSubscriptionDay",
					"type": "uint256"
				}
			],
			"name": "SetMaxSubscriptionDay",
			"type": "event"
		},
		{
			"anonymous": false,
			"inputs": [
				{
					"indexed": true,
					"internalType": "address",
					"name": "caller",
					"type": "address"
				},
				{
					"indexed": true,
					"internalType": "uint256",
					"name": "newSubscriptionPrice",
					"type": "uint256"
				}
			],
			"name": "SetSubscriptionPrice",
			"type": "event"
		},
		{
			"anonymous": false,
			"inputs": [
				{
					"indexed": true,
					"internalType": "address",
					"name": "caller",
					"type": "address"
				},
				{
					"indexed": true,
					"internalType": "contract IERC20",
					"name": "token_",
					"type": "address"
				}
			],
			"name": "SetTokenForPayment",
			"type": "event"
		},
		{
			"anonymous": false,
			"inputs": [
				{
					"indexed": true,
					"internalType": "address",
					"name": "caller",
					"type": "address"
				},
				{
					"indexed": true,
					"internalType": "address",
					"name": "worker",
					"type": "address"
				}
			],
			"name": "UpdateWorker",
			"type": "event"
		},
		{
			"anonymous": false,
			"inputs": [
				{
					"indexed": true,
					"internalType": "address",
					"name": "caller",
					"type": "address"
				},
				{
					"indexed": true,
					"internalType": "address",
					"name": "beneficiary_",
					"type": "address"
				},
				{
					"indexed": true,
					"internalType": "uint256",
					"name": "balance_",
					"type": "uint256"
				}
			],
			"name": "WithdrawTokenForPayment",
			"type": "event"
		},
		{
			"inputs": [],
			"name": "balanceTokenForPayment",
			"outputs": [
				{
					"internalType": "uint256",
					"name": "",
					"type": "uint256"
				}
			],
			"stateMutability": "view",
			"type": "function"
		},
		{
			"inputs": [],
			"name": "beneficiary",
			"outputs": [
				{
					"internalType": "address",
					"name": "",
					"type": "address"
				}
			],
			"stateMutability": "view",
			"type": "function"
		},
		{
			"inputs": [
				{
					"internalType": "uint256",
					"name": "numOfDay",
					"type": "uint256"
				}
			],
			"name": "extendSubscription",
			"outputs": [],
			"stateMutability": "nonpayable",
			"type": "function"
		},
		{
			"inputs": [],
			"name": "getActiveTime",
			"outputs": [
				{
					"internalType": "uint256",
					"name": "",
					"type": "uint256"
				}
			],
			"stateMutability": "view",
			"type": "function"
		},
		{
			"inputs": [],
			"name": "getCurrentUserId",
			"outputs": [
				{
					"internalType": "uint256",
					"name": "",
					"type": "uint256"
				}
			],
			"stateMutability": "view",
			"type": "function"
		},
		{
			"inputs": [],
			"name": "getMaxSubscriptionTime",
			"outputs": [
				{
					"internalType": "uint256",
					"name": "",
					"type": "uint256"
				}
			],
			"stateMutability": "view",
			"type": "function"
		},
		{
			"inputs": [],
			"name": "getSubscriptionPrice",
			"outputs": [
				{
					"internalType": "uint256",
					"name": "",
					"type": "uint256"
				}
			],
			"stateMutability": "view",
			"type": "function"
		},
		{
			"inputs": [
				{
					"internalType": "uint256",
					"name": "userId",
					"type": "uint256"
				}
			],
			"name": "getUserAddressById",
			"outputs": [
				{
					"internalType": "address",
					"name": "",
					"type": "address"
				}
			],
			"stateMutability": "view",
			"type": "function"
		},
		{
			"inputs": [
				{
					"internalType": "address",
					"name": "walletAddress",
					"type": "address"
				}
			],
			"name": "getUserDataByAddress",
			"outputs": [
				{
					"components": [
						{
							"internalType": "uint256",
							"name": "_userId",
							"type": "uint256"
						},
						{
							"internalType": "uint256",
							"name": "_expiryTime",
							"type": "uint256"
						}
					],
					"internalType": "struct SubscriptionPayment.UserDataStruct",
					"name": "",
					"type": "tuple"
				}
			],
			"stateMutability": "view",
			"type": "function"
		},
		{
			"inputs": [],
			"name": "getWorker",
			"outputs": [
				{
					"internalType": "address",
					"name": "",
					"type": "address"
				}
			],
			"stateMutability": "view",
			"type": "function"
		},
		{
			"inputs": [],
			"name": "owner",
			"outputs": [
				{
					"internalType": "address",
					"name": "",
					"type": "address"
				}
			],
			"stateMutability": "view",
			"type": "function"
		},
		{
			"inputs": [],
			"name": "paymentToken",
			"outputs": [
				{
					"internalType": "contract IERC20",
					"name": "",
					"type": "address"
				}
			],
			"stateMutability": "view",
			"type": "function"
		},
		{
			"inputs": [],
			"name": "renounceOwnership",
			"outputs": [],
			"stateMutability": "nonpayable",
			"type": "function"
		},
		{
			"inputs": [
				{
					"internalType": "address",
					"name": "beneficiary_",
					"type": "address"
				}
			],
			"name": "setBeneficiary",
			"outputs": [],
			"stateMutability": "nonpayable",
			"type": "function"
		},
		{
			"inputs": [
				{
					"internalType": "uint256",
					"name": "maxSubscriptionDay_",
					"type": "uint256"
				}
			],
			"name": "setMaxSubscriptionDay",
			"outputs": [],
			"stateMutability": "nonpayable",
			"type": "function"
		},
		{
			"inputs": [
				{
					"internalType": "uint256",
					"name": "newSubscriptionPrice",
					"type": "uint256"
				}
			],
			"name": "setSubscriptionPrice",
			"outputs": [],
			"stateMutability": "nonpayable",
			"type": "function"
		},
		{
			"inputs": [
				{
					"internalType": "contract IERC20",
					"name": "token_",
					"type": "address"
				}
			],
			"name": "setTokenForPayment",
			"outputs": [],
			"stateMutability": "nonpayable",
			"type": "function"
		},
		{
			"inputs": [
				{
					"internalType": "address",
					"name": "newOwner",
					"type": "address"
				}
			],
			"name": "transferOwnership",
			"outputs": [],
			"stateMutability": "nonpayable",
			"type": "function"
		},
		{
			"inputs": [
				{
					"internalType": "address",
					"name": "newWorker_",
					"type": "address"
				}
			],
			"name": "updateWorker",
			"outputs": [],
			"stateMutability": "nonpayable",
			"type": "function"
		},
		{
			"inputs": [],
			"name": "withdrawTokenForPayment",
			"outputs": [],
			"stateMutability": "nonpayable",
			"type": "function"
		}
	]
}